:100000000C9434000C9451000C9451000C94510049
:100010000C9451000C9451000C9451000C9451001C
:100020000C9451000C9451000C9451000C9451000C
:100030000C9451000C9451000C945E000C945100EF
:100040000C9451000C9451000C9451000C945100EC
:100050000C9451000C9451000C9451000C945100DC
:100060000C9451000C94510011241FBECFEFD8E026
:10007000DEBFCDBF11E0A0E0B1E0EAE3F1E002C0F5
:1000800005900D92A230B107D9F721E0A2E0B1E0CE
:1000900001C01D92A430B207E1F70E9453000C94F6
:1000A0009B000C9400008FEF87B982E084BD94E63A
:1000B00097BD80936E00789485BDFFCF1F920F92FD
:1000C0000FB60F9211242F938F939F93809102016B
:1000D0009091030101969093030180930201813175
:1000E00097420CF1809100019091010181309105BE
:1000F00039F0029761F44098419A84E687BD09C0BF
:10010000409A419888EC87BD82E090E004C0409A14
:10011000419A81E090E09093010180930001109258
:100120000301109202019F918F912F910F900FBEAA
:0A0130000F901F901895F894FFCF70
:02013A000100C2
:00000001FF
