S01A0000636F756E74696E67576974684865616465722E73726563BE
S113000014C026C025C024C023C022C021C020C0E3
S11300101FC01EC01DC01CC01BC01AC019C018C000
S113002017C016C015C014C013C011241FBECFE5DD
S1130030D1E0DEBFCDBF10E0A0E6B0E0E0E7F1E044
S113004002C005900D92AA36B107D9F702D08EC02E
S1130050D7CF88EF90E001D0FCCFEF92FF921F93AF
S1130060CF93DF93CDB7DEB72A970FB6F894DEBFF0
S11300700FBECDBF9C019AE0E0E6F0E0DE011196F0
S113008001900D929A95E1F79FEF91BB97BBC9013F
S113009064E670E044D0FB016AE070E040D024E6FE
S11300A030E011E0A1E0B0E0AC0FBD1FAE0FBF1F08
S11300B052E0E1E0F0E0EC0FFD1F6E0F7F1F44E023
S11300C07F01E80EF91E12BB8C9188BB89EF90E08A
S11300D00197F1F700C0000052BBFB01808188BB8F
S11300E089EF90E00197F1F700C0000042BBF701EF
S11300F0808188BB89EF90E00197F1F700C0000090
S11301002150310901F72A960FB6F894DEBF0FBECD
S1130110CDBFDF91CF911F91FF90EF90089597FB92
S1130120072E16F4009406D077FD08D00BD007FCF8
S113013005D03EF4909581959F4F089570956195F3
S11301407F4F0895AA1BBB1B51E107C0AA1FBB1F09
S1130150A617B70710F0A61BB70B881F991F5A954F
S1130160A9F780959095BC01CD010895F894FFCF2F
S10D0170C0F9A4B0999282F88090BF
S9030000FC
