:100000000C9434000C9451000C9451000C94510049
:100010000C9451000C9451000C9451000C9451001C
:100020000C9451000C9451000C9451000C9451000C
:100030000C9451000C9451000C9451000C945100FC
:100040000C9451000C9451000C9451000C945100EC
:100050000C9451000C9451000C9451000C945100DC
:100060000C9451000C94510011241FBECFEFD8E026
:10007000DEBFCDBF11E0A0E0B1E0EAE4F6E002C0EF
:1000800005900D92A032B107D9F721E0A0E2B1E0CE
:1000900001C01D92A632B207E1F70E94BE020C9485
:1000A00023030C94000084B18F7084B9599A589836
:1000B0005A9A82E08A95F1F700C083B182958F70D9
:1000C0005A9892E09A95F1F700C05A9A92E09A9560
:1000D000F1F700C05A9892E09A95F1F700C0829526
:1000E000807F87FDE5CF5998589A84B1806F84B995
:1000F00008955A9A85E88A95F1F700005A9808956C
:10010000CF93DF93C82FD62F0E945300D1110BC07D
:100110005898C03811F0C13061F481E0809301013A
:100120008093000106C0589A809101018F5F8093EF
:100130000101599885B19C2F907F892B85B90E9428
:10014000790085B18F7085B925B130E1C39FC001B9
:100150001124822B85B90E94790085B18F7085B9F1
:10016000DF91CF910895CF93DF93EC01899188239C
:1001700021F061E00E948000F9CFDF91CF910895D6
:100180004F925F926F927F928F929F92AF92BF92A7
:10019000CF92DF92EF92FF920F931F93CF93DF9353
:1001A000CDB7DEB72A970FB6F894DEBF0FBECDBF2E
:1001B0006B017C01042FCE0101965C018AE0F50100
:1001C00011928A95E9F7C114D104E104F104A9F070
:1001D000A701960110E09AE0492E512C612C712C58
:1001E0001F5FCA01B901A30192010E94E202211519
:1001F000310541055105A1F701C011E0402F411B18
:1002000047FD40E0F7FE0BC0F094E094D094C0941A
:10021000C11CD11CE11CF11C1F5F01E001C000E00A
:10022000140F8AE0482E512C612C712C1123C1F03F
:100230001A3060F44E01810E911CC701B601A30172
:1002400092010E94E202605DF4016083C701B60181
:10025000A30192010E94E20269017A011150E6CFE6
:10026000002311F08DE28983C5010E94B3002A9614
:100270000FB6F894DEBF0FBECDBFDF91CF911F91B7
:100280000F91FF90EF90DF90CF90BF90AF909F9035
:100290008F907F906F905F904F900895CF93DF93F2
:1002A000C82FD62F0E9453008FEF8C0F8E3F08F07F
:1002B000C1E0C0930101D0930001D23041F028F099
:1002C000D43049F030F0DF3F39F4C15005C0C15C93
:1002D00003C0C15F01C0C15B60E08C2F8068DF910B
:1002E000CF910C948000CF93C82F2FEF80E792E03E
:1002F000215080409040E1F700C0000084B1806F41
:1003000084B985B18F7085B9509A519A8AB1876046
:100310008AB95A985998589885B1806385B90E94CE
:10032000790085B18F7085B98FE19EE40197F1F76F
:1003300000C0000085B1806385B90E94790085B155
:100340008F7085B98FEC97E00197F1F700C000003E
:1003500085B1806385B90E94790085B18F7085B9B8
:100360008FEC97E00197F1F700C000002D9A0E94F2
:10037000790085B18F7085B98FEC97E00197F1F71F
:1003800000C000002D9A0E94790085B18F7085B958
:100390008FEC97E00197F1F700C000002F9A0E94C0
:1003A000790085B18F7085B98FEC97E00197F1F7EF
:1003B00000C000002C9A0E94790085B18F7085B929
:1003C0008FE097E20197F1F700C0000085B18066E9
:1003D00085B90E94790085B18F7085B98FEC97E05F
:1003E0000197F1F700C0000085B1806C85B98FECF2
:1003F00097E00197F1F700C0000085B18F7085B9D3
:100400000E9479002D9A0E94790085B18F7085B97C
:100410008FE19EE40197F1F700C0000060E08C2FAF
:100420008C600E94800060E081E00E94800060E0BB
:1004300080E8CF910C9480002FEF83ED90E3215062
:1004400080409040E1F700C000003D9A81E0809339
:10045000200108956091230170E080E090E042E087
:100460000E94C00061E08FED0E94800061E083E4A3
:100470000C9480006091210170E080E090E042E007
:100480000E94C00061E080E20E94800061E085E29D
:100490000C94800080912001811102C00E941C02F6
:1004A0003D9A45988FE39CE90197F1F700C0000061
:1004B0003D9895E59A95F1F70000359B02C080E0E4
:1004C0000895AAEDAA95F1F700C0359BF8CF2AED63
:1004D0002A95F1F700C03599F2CFE1E2F1E046E26A
:1004E00051E061E070E087E090E020E039E035998C
:1004F00007C0315029F0AAE1AA95F1F700C0F7CF63
:10050000359BDDCF3AE63A95F1F700C0359B07C041
:10051000DB01082E01C0AA0F0A94EAF72A2B39E062
:10052000359B07C0315029F0AAE1AA95F1F700C028
:10053000F7CF0197D8F621934E175F07A1F680EA0F
:100540008A95F1F79091210180912201890F909174
:100550002301890F90912401890F9091250189131E
:100560000BC09FEFA3ED20E39150A0402040E1F7A6
:1005700000C0000081E008958FEF089580E00E94A0
:1005800073010E944A0260E0813061F480E80E94B9
:1005900080000E942A0262E081E00E944E010E94D7
:1005A0003A02EFCF8F3F31F480E80E94800082E072
:1005B00091E005C080E80E94800081E191E00E9406
:1005C000B300DFCF052E97FB1EF400940E94F902C2
:1005D00057FD07D00E94010307FC03D04EF40C9492
:1005E000F90250954095309521953F4F4F4F5F4F01
:1005F000089590958095709561957F4F8F4F9F4F8F
:100600000895A1E21A2EAA1BBB1BFD010DC0AA1F53
:10061000BB1FEE1FFF1FA217B307E407F50720F06B
:10062000A21BB30BE40BF50B661F771F881F991FE6
:100630001A9469F760957095809590959B01AC012F
:0A064000BD01CF010895F894FFCF2B
:10064A000101436865636B73756D204572726F7241
:10065A0000556E6B6E6F776E204572726F72000076
:00000001FF
