:100000000C9434000C9451000C9451000C94510049
:100010000C9451000C9451000C9451000C9451001C
:100020000C9451000C9451000C9451000C9451000C
:100030000C9451000C9451000C9451000C945100FC
:100040000C9451000C9451000C9451000C945100EC
:100050000C9451000C9451000C9451000C945100DC
:100060000C9451000C94510011241FBECFEFD8E026
:10007000DEBFCDBF11E0A0E0B1E0E0E0FCE002C0F7
:1000800005900D92A631B107D9F721E0A6E1B1E0C4
:1000900001C01D92AB32B207E1F70E94DF020C945F
:1000A000FE050C94000084B18F7084B9599A589859
:1000B0005A9A82E08A95F1F700C083B182958F70D9
:1000C0005A9892E09A95F1F700C05A9A92E09A9560
:1000D000F1F700C05A9892E09A95F1F700C0829526
:1000E000807F87FDE5CF5998589A84B1806F84B995
:1000F00008955A9A85E88A95F1F700005A9808956C
:10010000CF93DF93C82FD62F0E945300D1110BC07D
:100110005898C03811F0C13061F481E0809301013A
:100120008093000106C0589A809101018F5F8093EF
:100130000101599885B19C2F907F892B85B90E9428
:10014000790085B18F7085B925B130E1C39FC001B9
:100150001124822B85B90E94790085B18F7085B9F1
:10016000DF91CF910895CF93DF93EC01899188239C
:1001700021F061E00E948000F9CFDF91CF910895D6
:100180004F925F926F927F928F929F92AF92BF92A7
:10019000CF92DF92EF92FF920F931F93CF93DF9353
:1001A000CDB7DEB72A970FB6F894DEBF0FBECDBF2E
:1001B0006B017C01042FCE0101965C018AE0F50100
:1001C00011928A95E9F7C114D104E104F104A9F070
:1001D000A701960110E09AE0492E512C612C712C58
:1001E0001F5FCA01B901A30192010E94BD0521153B
:1001F000310541055105A1F701C011E0402F411B18
:1002000047FD40E0F7FE0BC0F094E094D094C0941A
:10021000C11CD11CE11CF11C1F5F01E001C000E00A
:10022000140F8AE0482E512C612C712C1123C1F03F
:100230001A3060F44E01810E911CC701B601A30172
:1002400092010E94BD05605DF4016083C701B601A3
:10025000A30192010E94BD0569017A011150E6CF08
:10026000002311F08DE28983C5010E94B3002A9614
:100270000FB6F894DEBF0FBECDBFDF91CF911F91B7
:100280000F91FF90EF90DF90CF90BF90AF909F9035
:100290008F907F906F905F904F9008958F929F9274
:1002A000AF92BF92CF92DF92EF92FF920F931F9384
:1002B000CF93DF936B017C01042FC22F222321F007
:1002C000283018F0C7E001C0C1E0DC2F812C912C50
:1002D000A12C8FE3B82E20E030E040E251E4C501CC
:1002E000B4010E94F6034B015C01D150A1F720E05C
:1002F00030E0A901C701B6010E94F10387FF06C0E3
:10030000F7FAF094F7F8F09411E001C010E0A501BD
:100310009401C701B6010E9485034B015C010E9454
:1003200068046B017C010E94A0049B01AC01C50123
:10033000B4010E9484034B015C01DC2F20E030E01B
:1003400040E251E4C501B4010E9450054B015C013B
:10035000D150A1F7112389F0F094E094D094C09487
:10036000C11CD11CE11CF11CC114D104E104F10435
:1003700021F482E091E00E94B300402FC701B60152
:100380000E94C00084E091E00E94B300C501B40166
:100390000E9468044C2FDF91CF911F910F91FF9025
:1003A000EF90DF90CF90BF90AF909F908F900C9484
:1003B000C000CF93DF93C82FD62F0E9453008FEF3A
:1003C0008C0F8E3F08F0C1E0C0930101D093000173
:1003D000D23041F028F0D43049F030F0DF3F39F42A
:1003E000C15005C0C15C03C0C15F01C0C15B60E01A
:1003F0008C2F8068DF91CF910C948000CF93C82F11
:100400002FEF80E792E0215080409040E1F700C05C
:10041000000084B1806F84B985B18F7085B9509A1E
:10042000519A8AB187608AB95A985998589885B173
:10043000806385B90E94790085B18F7085B98FE19D
:100440009EE40197F1F700C0000085B1806385B993
:100450000E94790085B18F7085B98FEC97E0019784
:10046000F1F700C0000085B1806385B90E94790072
:1004700085B18F7085B98FEC97E00197F1F700C0D7
:1004800000002D9A0E94790085B18F7085B98FEC9C
:1004900097E00197F1F700C000002D9A0E947900C3
:1004A00085B18F7085B98FEC97E00197F1F700C0A7
:1004B00000002F9A0E94790085B18F7085B98FEC6A
:1004C00097E00197F1F700C000002C9A0E94790094
:1004D00085B18F7085B98FE097E20197F1F700C081
:1004E000000085B1806685B90E94790085B18F7062
:1004F00085B98FEC97E00197F1F700C0000085B156
:10050000806C85B98FEC97E00197F1F700C000008F
:1005100085B18F7085B90E9479002D9A0E9479006B
:1005200085B18F7085B98FE19EE40197F1F700C026
:10053000000060E08C2F8C600E94800060E081E011
:100540000E94800060E080E8CF910C9480003D9A8A
:1005500045988FE39CE90197F1F700C00000459AA8
:1005600008953D98459A3599FECF359BFECF359934
:10057000FECF089510922A0110922901809129013D
:1005800090912A010897C4F4359BFECF88E68A959E
:10059000F1F780911601880F3599816080931601DB
:1005A0003599FECF8091290190912A01019690936F
:1005B0002A0180932901E2CF80911601089580E0FD
:1005C0000E94FE012FEF83ED90E321508040904088
:1005D000E1F700C000000E94A7020E94B1020E9441
:1005E000BA02809327010E94BA02809324010E94DC
:1005F000BA02809326010E94BA02809328010E94C9
:10060000BA0280932501909127012091240130E0C6
:10061000290F311D90912601290F311D909128013C
:10062000290F311D332790E060E02817390741F08A
:1006300080E80E94800086E091E00E94B300C2CF73
:1006400080E80E9480006091260170E080E090E0E8
:100650000E949E0420E030E040E853E40E945005F0
:100660006B017C016091280170E080E090E00E94C5
:10067000A0049B01AC01C701B6010E94850320E0E4
:1006800030E040E251E40E94F60360931B01709356
:100690001C0180931D0190931E0122E040E00E9406
:1006A0004E0162E081E00E94D9016091270170E073
:1006B00080E090E00E949E0420E030E040E853E4B7
:1006C0000E9450056B017C016091240170E080E084
:1006D00090E00E94A0049B01AC01C701B6010E94FA
:1006E000850320E030E040E251E40E94F60360938D
:1006F0001701709318018093190190931A0122E059
:1007000040E00E944E015ECF5058BB27AA270E94AE
:100710009C030C9416050E94080538F00E940F05F2
:1007200020F039F49F3F19F426F40C9405050EF4DB
:10073000E095E7FB0C94FF04E92F0E94270558F38E
:10074000BA17620773078407950720F079F4A6F5B6
:100750000C9449050EF4E0950B2EBA2FA02D0B0139
:10076000B90190010C01CA01A0011124FF27591BF6
:1007700099F0593F50F4503E68F11A16F040A22FFC
:10078000232F342F4427585FF3CF4695379527956D
:10079000A795F0405395C9F77EF41F16BA0B620B6C
:1007A000730B840BBAF09150A1F0FF0FBB1F661FB3
:1007B000771F881FC2F70EC0BA0F621F731F841FF6
:1007C00048F4879577956795B795F7959E3F08F01C
:1007D000B0CF9395880F08F09927EE0F97958795DE
:1007E00008950E94DB0408F481E008950E940A0441
:1007F0000C9416050E940F0558F00E94080540F061
:1008000029F45F3F29F00C94FF0451110C944A0520
:100810000C9405050E94270568F39923B1F355232D
:1008200091F3951B550BBB27AA2762177307840703
:1008300038F09F5F5F4F220F331F441FAA1FA9F399
:1008400035D00E2E3AF0E0E832D091505040E69587
:10085000001CCAF72BD0FE2F29D0660F771F881FE8
:10086000BB1F261737074807AB07B0E809F0BB0BDB
:10087000802DBF01FF2793585F4F3AF09E3F5105EF
:1008800078F00C94FF040C944A055F3FE4F3983E23
:10089000D4F3869577956795B795F7959F5FC9F7D8
:1008A000880F911D9695879597F90895E1E0660F59
:1008B000771F881FBB1F621773078407BA0720F0D2
:1008C000621B730B840BBA0BEE1F88F7E09508953B
:1008D0000E946F046894B1110C944A0508950E9417
:1008E0002F0588F09F5798F0B92F9927B751B0F08E
:1008F000E1F0660F771F881F991F1AF0BA95C9F7A4
:1009000014C0B13091F00E944905B1E008950C94F3
:100910004905672F782F8827B85F39F0B93FCCF3A6
:10092000869577956795B395D9F73EF49095809520
:10093000709561957F4F8F4F9F4F0895E89409C040
:1009400097FB3EF490958095709561957F4F8F4F02
:100950009F4F9923A9F0F92F96E9BB279395F69518
:10096000879577956795B795F111F8CFFAF4BB0F96
:1009700011F460FF1BC06F5F7F4F8F4F9F4F16C0FA
:10098000882311F096E911C0772321F09EE8872F84
:10099000762F05C0662371F096E8862F70E060E040
:1009A0002AF09A95660F771F881FDAF7880F9695B9
:1009B000879597F90895990F0008550FAA0BE0E85D
:1009C000FEEF16161706E807F907C0F01216130611
:1009D000E407F50798F0621B730B840B950B39F451
:1009E0000A2661F0232B242B252B21F408950A26B7
:1009F00009F4A140A6958FEF811D811D089597F9F7
:100A00009F6780E870E060E008959FEF80EC0895B4
:100A100000240A94161617061806090608950024DD
:100A20000A9412161306140605060895092E039457
:100A3000000C11F4882352F0BB0F40F4BF2B11F4CB
:100A400060FF04C06F5F7F4F8F4F9F4F089557FD2A
:100A50009058440F551F59F05F3F71F04795880F2C
:100A600097FB991F61F09F3F79F0879508951216C3
:100A700013061406551FF2CF4695F1DF08C016166F
:100A800017061806991FF1CF869571056105089420
:100A90000895E894BB2766277727CB0197F9089537
:100AA0000E9463050C9416050E94080538F00E9408
:100AB0000F0520F0952311F00C94FF040C9405050C
:100AC00011240C944A050E94270570F3959FC1F3E9
:100AD000950F50E0551F629FF001729FBB27F00DEC
:100AE000B11D639FAA27F00DB11DAA1F649F662741
:100AF000B00DA11D661F829F2227B00DA11D621F90
:100B0000739FB00DA11D621F839FA00D611D221F49
:100B1000749F3327A00D611D231F849F600D211D2D
:100B2000822F762F6A2F11249F5750409AF0F1F0B0
:100B300088234AF0EE0FFF1FBB1F661F771F881F19
:100B400091505040A9F79E3F510580F00C94FF044E
:100B50000C944A055F3FE4F3983ED4F3869577956D
:100B60006795B795F795E7959F5FC1F7FE2B880FBF
:100B7000911D9695879597F90895052E97FB1EF47C
:100B800000940E94D40557FD07D00E94DC0507FCA5
:100B900003D04EF40C94D405509540953095219592
:100BA0003F4F4F4F5F4F0895909580957095619599
:100BB0007F4F8F4F9F4F0895A1E21A2EAA1BBB1B98
:100BC000FD010DC0AA1FBB1FEE1FFF1FA217B30719
:100BD000E407F50720F0A21BB30BE40BF50B661F2F
:100BE000771F881F991F1A9469F7609570958095F3
:100BF00090959B01AC01BD01CF010895F894FFCF02
:100C000001012D002E00436865636B73756D2065CF
:060C100072726F72000019
:00000001FF
