S013000044485431315F6F6E4C43442E73726563C0
S11300000C9434000C9451000C9451000C94510045
S11300100C9451000C9451000C9451000C94510018
S11300200C9451000C9451000C9451000C94510008
S11300300C9451000C9451000C9451000C945100F8
S11300400C9451000C9451000C9451000C945100E8
S11300500C9451000C9451000C9451000C945100D8
S11300600C9451000C94510011241FBECFEFD8E022
S1130070DEBFCDBF11E0A0E0B1E0E4EAF7E002C0EA
S113008005900D92A436B107D9F721E0A4E6B1E0BA
S113009001C01D92AA36B207E1F70E9467030C94CF
S11300A0D0030C94000087B1837C87B98BB1826044
S11300B08BB98BB18E7F8BB98BB184608BB982E0A5
S11300C08A95F1F700C086B1869586958295807FE2
S11300D09BB19B7F9BB992E09A95F1F700C09BB1CD
S11300E094609BB992E09A95F1F700C09BB19B7F15
S11300F09BB992E09A95F1F700C08823ECF28BB19A
S11301008D7F8BB98BB181608BB987B18C6387B9D3
S113011008958BB184608BB985E88A95F1F7000066
S11301208BB18B7F8BB90895CF93DF93C82FD62FD4
S11301300E945300D1110DC08BB18E7F8BB9C03892
S113014011F0C13071F481E08093010180930001CA
S113015008C08BB181608BB9809101018F5F80935E
S113016001018BB18D7F8BB99C2F907F28B1892F92
S113017090E09595879595958795822B88B90E94EF
S1130180890088B1837C88B920E1C29FC001112411
S113019028B199279595879595958795822B88B948
S11301A00E94890088B1837C88B9DF91CF9108953A
S11301B0CF93DF93C82FD62F0E9453008FEF8C0F5D
S11301C08E3F08F0C1E0C0930101D0930001D2300A
S11301D041F028F0D43049F030F0DF3F39F4C15019
S11301E005C0C15C03C0C15F01C0C15B60E08C2F6E
S11301F080680E949400DF91CF910895EF92FF925E
S11302000F931F93CF93DF93EC0101E011E033C010
S1130210113190F0013029F462E081E00E94D800AD
S113022002E0023030F08881803229F4219611E016
S113023003C011E001C011E088818532B9F47E0168
S11302408FEFE81AF80A89818053883028F461E036
S11302500E949400E7010DC061E085E20E949400D1
S113026061E089810E949400E70103C061E00E947B
S1130270940021961F5F88818111CACFDF91CF91AD
S11302801F910F91FF90EF9008958F929F92AF92DC
S1130290BF92DF92EF92FF920F931F93CF93DF935E
S11302A0CDB7DEB72A970FB6F894DEBF0FBECDBF29
S11302B04B015C01142FFE0131968AE0DF011D928F
S11302C08A95E9F781149104A104B10411F000E0C6
S11302D001C001E0A501940109C00F5FCA01B90181
S11302E02AE030E040E050E00E948F032115310500
S11302F04105510591F7101B0AF410E0BB2064F48A
S1130300B094A09490948094811C911CA11CB11C65
S11303100F5FDD24D39401C0D12C100F22C01A30FA
S1130320A8F4E12EF12CB1E0EB1AF108C501B401F7
S11303302AE030E040E050E00E948F03E1E0F0E08A
S1130340EC0FFD1FEE0DFF1D605D6083C501B40160
S11303502AE030E040E050E00E948F0349015A0156
S113036011501111DCCFDD2011F08DE28983CE0113
S113037001960E94FE002A960FB6F894DEBF0FBEC7
S1130380CDBFDF91CF911F910F91FF90EF90DF9040
S1130390BF90AF909F908F9008951F93CF93DF935A
S11303A0C82F2FEF80E792E0215080409040E1F782
S11303B000C0000087B18C6387B988B1837C88B999
S11303C08AB181608AB98AB182608AB98AB1876048
S11303D08AB98BB18B7F8BB98BB18D7F8BB98BB184
S11303E08E7F8BB988B18C6088B90E94890088B1EE
S11303F0837C88B98FE19EE40197F1F700C0000087
S113040088B18C6088B90E94890088B1837C88B9DE
S11304108FEC97E00197F1F700C0000088B18C6081
S113042088B90E94890088B1837C88B98FEC97E0F1
S11304300197F1F700C0000088B1886088B90E9474
S1130440890088B1837C88B98FEC97E00197F1F734
S113045000C0000088B1886088B90E94890088B112
S1130460837C88B98FEC97E00197F1F700C0000016
S113047088B1806288B90E94890088B1837C88B978
S11304808FEC97E00197F1F700C0000088B1846019
S113049088B90E94890088B1837C88B98FE097E28B
S11304A00197F1F700C0000088B1886188B90E9403
S11304B0890088B1837C88B98FEC97E00197F1F7C4
S11304C000C0000088B1806388B98FEC97E0019781
S11304D0F1F700C0000088B1837C88B90E948900CC
S11304E088B1886088B90E94890088B1837C88B902
S11304F08FE19EE40197F1F700C0000060E08C2FCB
S11305008C600E94940010E01DC0D12FDD0FDD0F20
S1130510DD0F60E080E48D0F0E949400CD2F08C0B1
S1130520FC01ED5DFE4F61E080810E949400CF5F8D
S11305308C2F90E02D2F30E0285F3F4F82179307D8
S11305407CF31F5F183008F360E081E00E949400A0
S113055060E080E80E949400DF91CF911F9108959C
S11305602FEF83ED90E3215080409040E1F700C0ED
S1130570000087B1806287B981E0809364010895A7
S11305806091670170E080E090E042E00E944501E4
S113059061E08FED0E94940061E083E40E94940086
S11305A008956091650170E080E090E042E00E946F
S11305B0450161E080E20E94940061E085E20E94CE
S11305C09400089580916401811102C00E94B002D8
S11305D087B1806287B988B18F7D88B98FE39CE940
S11305E00197F1F700C0000087B18F7D87B995E5C9
S11305F09A95F1F70000359960C02AED2A95F1F734
S113060000C0359B5CC08AED8A95F1F700C035992E
S113061058C070E036C08F5F893040F42AE12A95D3
S1130620F1F700C001C080E0359BF5CF359B4BC08E
S11306308AE68A95F1F700C0359B0CC047E050E08C
S1130640491B510921E030E002C0220F331F4A95B3
S1130650E2F7622B80E007C08F5F893030F42AE133
S11306602A95F1F700C03599F7CF9F5F02C060E08B
S113067090E09830C0F2E72FF0E0EB59FE4F608332
S11306807F5F7530A0F380EA8A95F1F7E5E6F1E043
S11306903081818122819381830F820F890F94811C
S11306A0891313C09FEF23ED80E3915020408040D5
S11306B0E1F700C0000081E0089580E0089580E043
S11306C0089580E0089580E008958FEF089580E014
S11306D00E94CD010E94E202813069F460E080E86A
S11306E00E9494000E94C00262E081E00E94D8004F
S11306F00E94D102EFCF8F3F49F460E080E80E946E
S1130700940086E091E00E94FE00E4CF60E080E87F
S11307100E94940085E191E00E94FE00DBCF052E4B
S113072097FB1EF400940E94A60357FD07D00E9475
S1130730AE0307FC03D04EF40C94A60350954095E9
S1130740309521953F4F4F4F5F4F08959095809579
S1130750709561957F4F8F4F9F4F0895A1E21A2E98
S1130760AA1BBB1BFD010DC0AA1FBB1FEE1FFF1F51
S1130770A217B307E407F50720F0A21BB30BE40BA1
S1130780F50B661F771F881F991F1A9469F76095E8
S11307907095809590959B01AC01BD01CF010895A2
S10707A0F894FFCFF7
S11307A401012D002E00436865636B73756D20454C
S11307B472726F7200556E6B6E6F776E2045727233
S11307C46F7200000000000000001F000000000021
S11307D4001F1F00000000001F1F1F000000001F57
S11307E41F1F1F0000001F1F1F1F1F00001F1F1FAC
S11307F41F1F1F001F1F1F1F1F1F1F1F1F1F1F1F20
S10708041F1F1F008F
S9030000FC
